{
  "contractName": "Lottery",
  "abi": [
    {
      "constant": true,
      "inputs": [],
      "name": "answerForTest",
      "outputs": [
        {
          "name": "",
          "type": "bytes32"
        }
      ],
      "payable": false,
      "stateMutability": "view",
      "type": "function"
    },
    {
      "constant": true,
      "inputs": [],
      "name": "owner",
      "outputs": [
        {
          "name": "",
          "type": "address"
        }
      ],
      "payable": false,
      "stateMutability": "view",
      "type": "function"
    },
    {
      "inputs": [],
      "payable": false,
      "stateMutability": "nonpayable",
      "type": "constructor"
    },
    {
      "anonymous": false,
      "inputs": [
        {
          "indexed": false,
          "name": "index",
          "type": "uint256"
        },
        {
          "indexed": false,
          "name": "bettor",
          "type": "address"
        },
        {
          "indexed": false,
          "name": "amount",
          "type": "uint256"
        },
        {
          "indexed": false,
          "name": "challenges",
          "type": "bytes1"
        },
        {
          "indexed": false,
          "name": "answerBlockNumber",
          "type": "uint256"
        }
      ],
      "name": "BET",
      "type": "event"
    },
    {
      "anonymous": false,
      "inputs": [
        {
          "indexed": false,
          "name": "index",
          "type": "uint256"
        },
        {
          "indexed": false,
          "name": "bettor",
          "type": "address"
        },
        {
          "indexed": false,
          "name": "amount",
          "type": "uint256"
        },
        {
          "indexed": false,
          "name": "challenges",
          "type": "bytes1"
        },
        {
          "indexed": false,
          "name": "answer",
          "type": "bytes1"
        },
        {
          "indexed": false,
          "name": "answerBlockNumber",
          "type": "uint256"
        }
      ],
      "name": "WIN",
      "type": "event"
    },
    {
      "anonymous": false,
      "inputs": [
        {
          "indexed": false,
          "name": "index",
          "type": "uint256"
        },
        {
          "indexed": false,
          "name": "bettor",
          "type": "address"
        },
        {
          "indexed": false,
          "name": "amount",
          "type": "uint256"
        },
        {
          "indexed": false,
          "name": "challenges",
          "type": "bytes1"
        },
        {
          "indexed": false,
          "name": "answer",
          "type": "bytes1"
        },
        {
          "indexed": false,
          "name": "answerBlockNumber",
          "type": "uint256"
        }
      ],
      "name": "FAIL",
      "type": "event"
    },
    {
      "anonymous": false,
      "inputs": [
        {
          "indexed": false,
          "name": "index",
          "type": "uint256"
        },
        {
          "indexed": false,
          "name": "bettor",
          "type": "address"
        },
        {
          "indexed": false,
          "name": "amount",
          "type": "uint256"
        },
        {
          "indexed": false,
          "name": "challenges",
          "type": "bytes1"
        },
        {
          "indexed": false,
          "name": "answer",
          "type": "bytes1"
        },
        {
          "indexed": false,
          "name": "answerBlockNumber",
          "type": "uint256"
        }
      ],
      "name": "DRAW",
      "type": "event"
    },
    {
      "anonymous": false,
      "inputs": [
        {
          "indexed": false,
          "name": "index",
          "type": "uint256"
        },
        {
          "indexed": false,
          "name": "bettor",
          "type": "address"
        },
        {
          "indexed": false,
          "name": "amount",
          "type": "uint256"
        },
        {
          "indexed": false,
          "name": "challenges",
          "type": "bytes1"
        },
        {
          "indexed": false,
          "name": "answerBlockNumber",
          "type": "uint256"
        }
      ],
      "name": "REFUND",
      "type": "event"
    },
    {
      "constant": true,
      "inputs": [],
      "name": "getPot",
      "outputs": [
        {
          "name": "pot",
          "type": "uint256"
        }
      ],
      "payable": false,
      "stateMutability": "view",
      "type": "function"
    },
    {
      "constant": false,
      "inputs": [
        {
          "name": "challenges",
          "type": "bytes1"
        }
      ],
      "name": "betAndDistribute",
      "outputs": [
        {
          "name": "result",
          "type": "bool"
        }
      ],
      "payable": true,
      "stateMutability": "payable",
      "type": "function"
    },
    {
      "constant": false,
      "inputs": [
        {
          "name": "challenges",
          "type": "bytes1"
        }
      ],
      "name": "bet",
      "outputs": [
        {
          "name": "result",
          "type": "bool"
        }
      ],
      "payable": true,
      "stateMutability": "payable",
      "type": "function"
    },
    {
      "constant": false,
      "inputs": [],
      "name": "distribute",
      "outputs": [],
      "payable": false,
      "stateMutability": "nonpayable",
      "type": "function"
    },
    {
      "constant": false,
      "inputs": [
        {
          "name": "answer",
          "type": "bytes32"
        }
      ],
      "name": "setAnswerForTest",
      "outputs": [
        {
          "name": "result",
          "type": "bool"
        }
      ],
      "payable": false,
      "stateMutability": "nonpayable",
      "type": "function"
    },
    {
      "constant": true,
      "inputs": [
        {
          "name": "challenges",
          "type": "bytes1"
        },
        {
          "name": "answer",
          "type": "bytes32"
        }
      ],
      "name": "isMatch",
      "outputs": [
        {
          "name": "",
          "type": "uint8"
        }
      ],
      "payable": false,
      "stateMutability": "pure",
      "type": "function"
    },
    {
      "constant": true,
      "inputs": [
        {
          "name": "index",
          "type": "uint256"
        }
      ],
      "name": "getBetInfo",
      "outputs": [
        {
          "name": "answerBlockNumber",
          "type": "uint256"
        },
        {
          "name": "bettor",
          "type": "address"
        },
        {
          "name": "challenges",
          "type": "bytes1"
        }
      ],
      "payable": false,
      "stateMutability": "view",
      "type": "function"
    }
  ],
  "bytecode": "0x60806040526000600560006101000a81548160ff02191690831515021790555034801561002b57600080fd5b5033600360006101000a81548173ffffffffffffffffffffffffffffffffffffffff021916908373ffffffffffffffffffffffffffffffffffffffff16021790555061163b8061007c6000396000f3fe608060405260043610610093576000357c010000000000000000000000000000000000000000000000000000000090048063403c9fa8146100985780637009fa36146100c357806379141f801461011657806384f7e4f0146101e35780638da5cb5b1461020e57806399a167d714610265578063e16ea857146102ee578063e4fc6b6d14610356578063f4b46f5b1461036d575b600080fd5b3480156100a457600080fd5b506100ad6103d5565b6040518082815260200191505060405180910390f35b3480156100cf57600080fd5b506100fc600480360360208110156100e657600080fd5b81019080803590602001909291905050506103df565b604051808215151515815260200191505060405180910390f35b34801561012257600080fd5b5061014f6004803603602081101561013957600080fd5b81019080803590602001909291905050506104dc565b604051808481526020018373ffffffffffffffffffffffffffffffffffffffff1673ffffffffffffffffffffffffffffffffffffffff168152602001827effffffffffffffffffffffffffffffffffffffffffffffffffffffffffffff19167effffffffffffffffffffffffffffffffffffffffffffffffffffffffffffff19168152602001935050505060405180910390f35b3480156101ef57600080fd5b506101f8610601565b6040518082815260200191505060405180910390f35b34801561021a57600080fd5b50610223610607565b604051808273ffffffffffffffffffffffffffffffffffffffff1673ffffffffffffffffffffffffffffffffffffffff16815260200191505060405180910390f35b34801561027157600080fd5b506102ca6004803603604081101561028857600080fd5b8101908080357effffffffffffffffffffffffffffffffffffffffffffffffffffffffffffff191690602001909291908035906020019092919050505061062d565b604051808260028111156102da57fe5b60ff16815260200191505060405180910390f35b61033c6004803603602081101561030457600080fd5b8101908080357effffffffffffffffffffffffffffffffffffffffffffffffffffffffffffff19169060200190929190505050610976565b604051808215151515815260200191505060405180910390f35b34801561036257600080fd5b5061036b610993565b005b6103bb6004803603602081101561038357600080fd5b8101908080357effffffffffffffffffffffffffffffffffffffffffffffffffffffffffffff191690602001909291905050506110f0565b604051808215151515815260200191505060405180910390f35b6000600454905090565b6000600360009054906101000a900473ffffffffffffffffffffffffffffffffffffffff1673ffffffffffffffffffffffffffffffffffffffff163373ffffffffffffffffffffffffffffffffffffffff161415156104cc576040517f08c379a000000000000000000000000000000000000000000000000000000000815260040180806020018281038252602b8152602001807f4f6e6c79206f776e65722063616e207365742074686520616e7377657220666f81526020017f722074657374206d6f646500000000000000000000000000000000000000000081525060400191505060405180910390fd5b8160068190555060019050919050565b60008060006104e96115b5565b6002600086815260200190815260200160002060606040519081016040529081600082015481526020016001820160009054906101000a900473ffffffffffffffffffffffffffffffffffffffff1673ffffffffffffffffffffffffffffffffffffffff1673ffffffffffffffffffffffffffffffffffffffff1681526020016001820160149054906101000a90047f0100000000000000000000000000000000000000000000000000000000000000027effffffffffffffffffffffffffffffffffffffffffffffffffffffffffffff19167effffffffffffffffffffffffffffffffffffffffffffffffffffffffffffff1916815250509050806000015193508060200151925080604001519150509193909250565b60065481565b600360009054906101000a900473ffffffffffffffffffffffffffffffffffffffff1681565b6000808390506000849050600084600060208110151561064957fe5b1a7f0100000000000000000000000000000000000000000000000000000000000000029050600085600060208110151561067f57fe5b1a7f01000000000000000000000000000000000000000000000000000000000000000290506004847effffffffffffffffffffffffffffffffffffffffffffffffffffffffffffff1916908060020a820491505093506004847effffffffffffffffffffffffffffffffffffffffffffffffffffffffffffff19169060020a0293506004827effffffffffffffffffffffffffffffffffffffffffffffffffffffffffffff1916908060020a820491505091506004827effffffffffffffffffffffffffffffffffffffffffffffffffffffffffffff19169060020a0291506004837effffffffffffffffffffffffffffffffffffffffffffffffffffffffffffff19169060020a0292506004837effffffffffffffffffffffffffffffffffffffffffffffffffffffffffffff1916908060020a820491505092506004817effffffffffffffffffffffffffffffffffffffffffffffffffffffffffffff19169060020a0290506004817effffffffffffffffffffffffffffffffffffffffffffffffffffffffffffff1916908060020a82049150509050837effffffffffffffffffffffffffffffffffffffffffffffffffffffffffffff1916827effffffffffffffffffffffffffffffffffffffffffffffffffffffffffffff19161480156108ae5750827effffffffffffffffffffffffffffffffffffffffffffffffffffffffffffff1916817effffffffffffffffffffffffffffffffffffffffffffffffffffffffffffff1916145b156108c0576001945050505050610970565b837effffffffffffffffffffffffffffffffffffffffffffffffffffffffffffff1916827effffffffffffffffffffffffffffffffffffffffffffffffffffffffffffff191614806109555750827effffffffffffffffffffffffffffffffffffffffffffffffffffffffffffff1916817effffffffffffffffffffffffffffffffffffffffffffffffffffffffffffff1916145b15610967576002945050505050610970565b60009450505050505b92915050565b6000610981826110f0565b5061098a610993565b60019050919050565b60008061099e6115b5565b60008060015494505b6000548510156110e2576002600086815260200190815260200160002060606040519081016040529081600082015481526020016001820160009054906101000a900473ffffffffffffffffffffffffffffffffffffffff1673ffffffffffffffffffffffffffffffffffffffff1673ffffffffffffffffffffffffffffffffffffffff1681526020016001820160149054906101000a90047f0100000000000000000000000000000000000000000000000000000000000000027effffffffffffffffffffffffffffffffffffffffffffffffffffffffffffff19167effffffffffffffffffffffffffffffffffffffffffffffffffffffffffffff1916815250509250610ab983600001516112c5565b915060006002811115610ac857fe5b826002811115610ad457fe5b1415610f9e576000610ae98460000151611319565b9050610af984604001518261062d565b915060016002811115610b0857fe5b826002811115610b1457fe5b1415610c8e57610b3384602001516611c37937e0800060045401611324565b945060006004819055507f8219079e2d6c1192fb0ff7f78e6faaf5528ad6687e69749205d87bd4b156912b868560200151878760400151856000602081101515610b7957fe5b1a7f0100000000000000000000000000000000000000000000000000000000000000028960000151604051808781526020018673ffffffffffffffffffffffffffffffffffffffff1673ffffffffffffffffffffffffffffffffffffffff168152602001858152602001847effffffffffffffffffffffffffffffffffffffffffffffffffffffffffffff19167effffffffffffffffffffffffffffffffffffffffffffffffffffffffffffff19168152602001837effffffffffffffffffffffffffffffffffffffffffffffffffffffffffffff19167effffffffffffffffffffffffffffffffffffffffffffffffffffffffffffff19168152602001828152602001965050505050505060405180910390a15b60006002811115610c9b57fe5b826002811115610ca757fe5b1415610e16576611c37937e080006004600082825401925050819055507f3b19d607433249d2ebc766ae82ca3848e9c064f1febb5147bc6e5b21d0adebc586856020015160008760400151856000602081101515610d0157fe5b1a7f0100000000000000000000000000000000000000000000000000000000000000028960000151604051808781526020018673ffffffffffffffffffffffffffffffffffffffff1673ffffffffffffffffffffffffffffffffffffffff168152602001858152602001847effffffffffffffffffffffffffffffffffffffffffffffffffffffffffffff19167effffffffffffffffffffffffffffffffffffffffffffffffffffffffffffff19168152602001837effffffffffffffffffffffffffffffffffffffffffffffffffffffffffffff19167effffffffffffffffffffffffffffffffffffffffffffffffffffffffffffff19168152602001828152602001965050505050505060405180910390a15b600280811115610e2257fe5b826002811115610e2e57fe5b1415610f9c57610e4984602001516611c37937e08000611324565b94507f72ec2e949e4fad9380f9d5db3e2ed0e71cf22c51d8d66424508bdc761a3f4b0e868560200151878760400151856000602081101515610e8757fe5b1a7f0100000000000000000000000000000000000000000000000000000000000000028960000151604051808781526020018673ffffffffffffffffffffffffffffffffffffffff1673ffffffffffffffffffffffffffffffffffffffff168152602001858152602001847effffffffffffffffffffffffffffffffffffffffffffffffffffffffffffff19167effffffffffffffffffffffffffffffffffffffffffffffffffffffffffffff19168152602001837effffffffffffffffffffffffffffffffffffffffffffffffffffffffffffff19167effffffffffffffffffffffffffffffffffffffffffffffffffffffffffffff19168152602001828152602001965050505050505060405180910390a15b505b60016002811115610fab57fe5b826002811115610fb757fe5b1415610fc2576110e2565b600280811115610fce57fe5b826002811115610fda57fe5b14156110cb57610ff583602001516611c37937e08000611324565b93507f59c0185881271a0f53d43e6ab9310091408f9e0ff9ae2512613de800f26b8de48584602001518686604001518760000151604051808681526020018573ffffffffffffffffffffffffffffffffffffffff1673ffffffffffffffffffffffffffffffffffffffff168152602001848152602001837effffffffffffffffffffffffffffffffffffffffffffffffffffffffffffff19167effffffffffffffffffffffffffffffffffffffffffffffffffffffffffffff191681526020018281526020019550505050505060405180910390a15b6110d4856113ed565b5084806001019550506109a7565b846001819055505050505050565b60006611c37937e0800034141515611170576040517f08c379a000000000000000000000000000000000000000000000000000000000815260040180806020018281038252600e8152602001807f4e6f7420656e6f7567682045544800000000000000000000000000000000000081525060200191505060405180910390fd5b61117982611451565b15156111ed576040517f08c379a000000000000000000000000000000000000000000000000000000000815260040180806020018281038252601a8152602001807f4661696c20746f206164642061206e65772042657420496e666f00000000000081525060200191505060405180910390fd5b7f100791de9f40bf2d56ffa6dc5597d2fd0b2703ea70bc7548cd74c04f5d215ab760016000540333348560014301604051808681526020018573ffffffffffffffffffffffffffffffffffffffff1673ffffffffffffffffffffffffffffffffffffffff168152602001848152602001837effffffffffffffffffffffffffffffffffffffffffffffffffffffffffffff19167effffffffffffffffffffffffffffffffffffffffffffffffffffffffffffff191681526020018281526020019550505050505060405180910390a160019050919050565b600081431180156112d95750816101000143105b156112e75760009050611314565b81431115156112f95760019050611314565b61010082014310151561130f5760029050611314565b600290505b919050565b600081409050919050565b60008060009050600081840390508473ffffffffffffffffffffffffffffffffffffffff166108fc829081150290604051600060405180830381858888f19350505050158015611378573d6000803e3d6000fd5b50600360009054906101000a900473ffffffffffffffffffffffffffffffffffffffff1673ffffffffffffffffffffffffffffffffffffffff166108fc839081150290604051600060405180830381858888f193505050501580156113e1573d6000803e3d6000fd5b50809250505092915050565b6000600260008381526020019081526020016000206000808201600090556001820160006101000a81549073ffffffffffffffffffffffffffffffffffffffff02191690556001820160146101000a81549060ff0219169055505060019050919050565b600061145b6115b5565b33816020019073ffffffffffffffffffffffffffffffffffffffff16908173ffffffffffffffffffffffffffffffffffffffff1681525050600143018160000181815250508281604001907effffffffffffffffffffffffffffffffffffffffffffffffffffffffffffff191690817effffffffffffffffffffffffffffffffffffffffffffffffffffffffffffff1916815250508060026000805481526020019081526020016000206000820151816000015560208201518160010160006101000a81548173ffffffffffffffffffffffffffffffffffffffff021916908373ffffffffffffffffffffffffffffffffffffffff16021790555060408201518160010160146101000a81548160ff02191690837f01000000000000000000000000000000000000000000000000000000000000009004021790555090505060008081548092919060010191905055506001915050919050565b60606040519081016040528060008152602001600073ffffffffffffffffffffffffffffffffffffffff16815260200160007effffffffffffffffffffffffffffffffffffffffffffffffffffffffffffff19168152509056fea165627a7a72305820d8acc02708cdf90a2e57c5aed5f065b17bdd62f36696d0a798629d81f6295dc50029",
  "source": "pragma solidity >=0.4.21 <0.9.0;\n\n\ncontract Lottery {\n    struct BetInfo {\n        uint256 answerBlockNumber; // 맞추려는 정답 블록 \n        address payable bettor; // 배팅한 사람 (주소)\n        byte challenges; // 제시한 답\n    }\n    \n    uint256 private _tail; \n    uint256 private _head;\n    mapping (uint256 => BetInfo) private _bets;\n\n    address payable public owner;\n    \n    \n    uint256 private _pot; \n    bool private mode = false; // false : use answer for test , true : use real block hash\n    bytes32 public answerForTest;\n\n    uint256 constant internal BLOCK_LIMIT = 256;\n    uint256 constant internal BET_BLOCK_INTERVAL = 1;\n    uint256 constant internal BET_AMOUNT = 5 * 10 ** 15;\n\n    // uint256 private _pot; \n\n    enum BlockStatus {checkable, NotRevealed, BlockLimitPassed}\n    enum BettingResult {Fail, Win, Draw}\n\n    event BET(uint256 index, address bettor, uint256 amount, byte challenges, uint answerBlockNumber);\n    event WIN(uint256 index, address bettor, uint256 amount, byte challenges, byte answer, uint256 answerBlockNumber);\n    event FAIL(uint256 index, address bettor, uint256 amount, byte challenges, byte answer, uint256 answerBlockNumber);\n    event DRAW(uint256 index, address bettor, uint256 amount, byte challenges, byte answer, uint256 answerBlockNumber);\n    event REFUND(uint256 index, address bettor, uint256 amount, byte challenges, uint256 answerBlockNumber);\n\n\n    constructor() public {\n        owner = msg.sender;\n    }\n\n    function getPot() public view returns (uint256 pot) {\n        return _pot;\n    }\n\n    /**\n     * @dev 베팅과 정답 체크를 한다. 유저는 0.005 ETH를 보내야 하고, 베팅용 1 byte 글자를 보낸다.\n     * 큐에 저장된 베팅 정보는 이후 distribute 함수에서 해결된다.\n     * @param challenges 유저가 베팅하는 글자\n     * @return 함수가 잘 수행되었는지 확인해는 bool 값\n     */\n    function betAndDistribute(byte challenges) public payable returns (bool result) {\n        bet(challenges);\n\n        distribute();\n\n        return true;\n    }\n\n    // 90846 -> 75846\n    /**\n     * @dev 베팅을 한다. 유저는 0.005 ETH를 보내야 하고, 베팅용 1 byte 글자를 보낸다.\n     * 큐에 저장된 베팅 정보는 이후 distribute 함수에서 해결된다.\n     * @param challenges 유저가 베팅하는 글자\n     * @return 함수가 잘 수행되었는지 확인해는 bool 값\n     */\n    function bet(byte challenges) public payable returns (bool result) {\n        // Check the proper ether is sent\n        require(msg.value == BET_AMOUNT, \"Not enough ETH\");\n\n        // Push bet to the queue\n        require(pushBet(challenges), \"Fail to add a new Bet Info\");\n\n        // Emit event\n        emit BET(_tail - 1, msg.sender, msg.value, challenges, block.number + BET_BLOCK_INTERVAL);\n\n        return true;\n    }\n\n    /**  Distribute()\n     * @dev 배팅 결과값을 확인 하고 팟머니를 분배한다.\n     * 정답 실패 : 팟 머니 축적, 정답 맞춤 : 팟머니 획득, 한글자 맞춤 or 정답 확인 불가 : 배팅 금액만 획득\n     */\n\n    function distribute() public {\n        // head 3 ..... 6 7 8 9 10 11 12 tail\n        uint256 cur;\n        uint256 transferAmount;\n\n        BetInfo memory b;\n        BlockStatus currentBlockStatus;\n        BettingResult currentBettingResult;\n\n        for(cur=_head;cur<_tail;cur++) {\n            b = _bets[cur]; // user가 배팅한 바이트 값을 b변수에 저장함 \n            currentBlockStatus = getBlockStatus(b.answerBlockNumber);\n\n            // Checkable : block.number > AnswerBlockNumber && block.number < BLOCK_LIMIT + AnswerBlockNumber \n            if(currentBlockStatus == BlockStatus.checkable) {\n                bytes32 answerBlockHash = getAnswerBlockHash(b.answerBlockNumber);\n                currentBettingResult = isMatch(b.challenges, answerBlockHash);\n                // if win, bettor gets pot\n                if (currentBettingResult == BettingResult.Win) {\n                    // transfer pot\n                    transferAmount = transferAfterPayingFee(b.bettor, _pot + BET_AMOUNT);  //배팅한 금액까지 포함\n                    \n                    // pot = 0\n                    _pot = 0;\n\n                    // emit WIN\n                    emit WIN(cur, b.bettor, transferAmount, b.challenges, answerBlockHash[0], b.answerBlockNumber);\n\n                }\n                // if fail, bettor's money goes pot\n                if (currentBettingResult == BettingResult.Fail) {\n                    // pot = pot + BET_AMOUNT\n                    _pot += BET_AMOUNT;\n\n                    // emit Fail\n                    emit FAIL(cur, b.bettor, 0, b.challenges, answerBlockHash[0], b.answerBlockNumber);\n                }\n\n                // if draw, refund bettor's money\n                if (currentBettingResult == BettingResult.Draw) {\n                    // transfer only BET_AMOUNT\n                    transferAmount = transferAfterPayingFee(b.bettor, BET_AMOUNT);\n\n                    // emit Draw\n                    emit DRAW(cur, b.bettor, transferAmount, b.challenges, answerBlockHash[0], b.answerBlockNumber);\n                }\n\n            } \n\n            // Not Revealed : block.number <= AnswerBlockNumber\n            if(currentBlockStatus == BlockStatus.NotRevealed) { //마이닝 되지 않은 상태 - 반복문을 빠져나감. 현재 검증할 수 없는 블록(이후 동일)\n                break;\n            } \n            // Block Limit Passed : block.number >= AnswerBlockNumber + BLOCK_LIMIT\n            if(currentBlockStatus == BlockStatus.BlockLimitPassed) {\n                // refund\n                transferAmount = transferAfterPayingFee(b.bettor, BET_AMOUNT);\n\n                // emit refund\n                emit REFUND(cur, b.bettor, transferAmount, b.challenges, b.answerBlockNumber);\n            }\n            popBet(cur);\n        }\n        _head = cur;\n    }\n    function transferAfterPayingFee(address payable addr, uint256 amount) internal returns (uint256) { \n        // 특정 addr(주소)에 amount(얼마)를 주겠다를 param으로 받고, 얼마에서 일정량의 수수료를 빼서 sc오너에게 주고 실제 전송될 분량을 return\n        // uint256 fee = amount / 100;\n        uint256 fee = 0;\n        uint256 amountWithoutFee = amount - fee;\n\n        // transfer to addr\n        addr.transfer(amountWithoutFee);\n\n        // transfer to owner\n        owner.transfer(fee);\n\n        // call, send, transfer (ETH 전송하는 방법 *조심)\n\n        return amountWithoutFee;\n    } \n    function setAnswerForTest(bytes32 answer) public returns (bool result) {\n        require(msg.sender == owner, \"Only owner can set the answer for test mode\");\n        answerForTest = answer;\n        return true;\n    }\n    function getAnswerBlockHash(uint256 answerBlockNumber) internal view returns (bytes32 answer) {\n        // return mode ? blockhash(answerBlockNumber) : answerForTest;\n        return blockhash(answerBlockNumber);\n    }\n    /**\n     * @dev 배팅글자와 정답을 확인한다.\n     * @param challenges 배팅 글자\n     * @param answer 블록해쉬\n     * @return 정답결과\n     */\n\n\n    function isMatch(byte challenges, bytes32 answer) public pure returns (BettingResult) {\n        // challenges 0xab -> 첫번째, 두번째 글자를 뽑아서 challenges와 아래 answer에서 뽑은 글자와 비교하기.\n        // answer 0xab......ff 32bytes\n\n        byte c1 = challenges; //challenges에서 첫 번째 byte를 뽑아옴\n        byte c2 = challenges;\n\n        byte a1 = answer[0];\n        byte a2 = answer[0];\n\n        // Get first number (shifting 연산사용)\n        c1 = c1 >> 4; // 0xab -> 0x0a\n        c1 = c1 << 4; // 0x0a -> 0xa0\n\n        a1 = a1 >> 4;\n        a1 = a1 << 4;\n\n        // Get Second number\n        c2 = c2 << 4; // 0xab -> 0xb0\n        c2 = c2 >> 4;  // 0xb0 -> 0x0b\n\n        a2 = a2 << 4;\n        a2 = a2 >> 4;\n\n        if(a1 == c1 && a2 == c2) {\n            return BettingResult.Win;\n        } \n        if(a1 == c1 || a2 == c2) {\n            return BettingResult.Draw;\n        }\n\n        return BettingResult.Fail;\n    }\n\n \n    function getBlockStatus(uint256 answerBlockNumber) internal view returns (BlockStatus) {\n        if (block.number > answerBlockNumber && block.number < BLOCK_LIMIT + answerBlockNumber) {\n            return BlockStatus.checkable;\n        }\n        if (block.number <= answerBlockNumber) {\n            return BlockStatus.NotRevealed;\n        }\n        if (block.number >= answerBlockNumber + BLOCK_LIMIT) {\n            return BlockStatus.BlockLimitPassed;\n        }\n        return BlockStatus.BlockLimitPassed; // 환불\n    }\n\n    function getBetInfo(uint256 index) public view returns (uint256 answerBlockNumber, address bettor, byte challenges) {\n        BetInfo memory b = _bets[index];\n        answerBlockNumber = b.answerBlockNumber;\n        bettor = b.bettor;\n        challenges = b.challenges;\n    }\n\n    function pushBet(byte challenges) internal returns (bool) {\n        BetInfo memory b;\n        b.bettor = msg.sender; // 20 byte\n        b.answerBlockNumber = block.number + BET_BLOCK_INTERVAL; // 32byte  20000 gas\n        b.challenges = challenges; // byte // 20000 gas\n\n        _bets[_tail] = b;\n        _tail++; // 32byte 값 변화 // 20000 gas -> 5000 gas\n\n        return true;\n    }\n\n    function popBet(uint256 index) internal returns (bool) {\n        delete _bets[index];\n        return true;\n    }\n}",
  "sourcePath": "/Users/gayunkim/Desktop/Lottery/lottery-smart-contract/contracts/Lottery.sol",
  "compiler": {
    "name": "solc",
    "version": "0.5.1+commit.c8a2cb62.Emscripten.clang"
  },
  "schemaVersion": "3.4.5",
  "updatedAt": "2022-03-07T15:04:38.312Z",
  "networkType": "ethereum",
  "devdoc": {
    "methods": {
      "bet(bytes1)": {
        "details": "베팅을 한다. 유저는 0.005 ETH를 보내야 하고, 베팅용 1 byte 글자를 보낸다. 큐에 저장된 베팅 정보는 이후 distribute 함수에서 해결된다.",
        "params": {
          "challenges": "유저가 베팅하는 글자"
        },
        "return": "함수가 잘 수행되었는지 확인해는 bool 값"
      },
      "betAndDistribute(bytes1)": {
        "details": "베팅과 정답 체크를 한다. 유저는 0.005 ETH를 보내야 하고, 베팅용 1 byte 글자를 보낸다. 큐에 저장된 베팅 정보는 이후 distribute 함수에서 해결된다.",
        "params": {
          "challenges": "유저가 베팅하는 글자"
        },
        "return": "함수가 잘 수행되었는지 확인해는 bool 값"
      },
      "distribute()": {
        "details": "배팅 결과값을 확인 하고 팟머니를 분배한다. 정답 실패 : 팟 머니 축적, 정답 맞춤 : 팟머니 획득, 한글자 맞춤 or 정답 확인 불가 : 배팅 금액만 획득"
      },
      "isMatch(bytes1,bytes32)": {
        "details": "배팅글자와 정답을 확인한다.",
        "params": {
          "answer": "블록해쉬",
          "challenges": "배팅 글자"
        },
        "return": "정답결과"
      }
    }
  },
  "userdoc": {
    "methods": {
      "distribute()": {
        "notice": "Distribute()"
      }
    }
  }
}